:020000040800F2
:100000000080012081020008D1020008D10200080E
:10001000D1020008D1020008D1020008000000004F
:10002000000000000000000000000000D1020008F5
:10003000D102000800000000D1020008D10200082F
:1000400000000000D1020008D1020008D10200081F
:10005000D1020008D1020008D1020008D102000834
:10006000D1020008D1020008D102000800000000FF
:100070000000000000000000000000000000000080
:100080000000000000000000D10200080000000095
:10009000000000000000000000000000D102000885
:1000A000D1020008D1020008D1020008D1020008E4
:1000B000D1020008D1020008D1020008D1020008D4
:1000C000D1020008D1020008D1020008D1020008C4
:1000D000D1020008D1020008D1020008000000008F
:1000E000D1020008D1020008D1020008000000007F
:1000F0000000000000000000000000000000000000
:1001000000000000D1020008D1020008D10200085E
:1001100000000000000000000000000000000000DF
:1001200000000000000000000000000000000000CF
:1001300000000000000000000000000000000000BF
:10014000000000000000000000000000D1020008D4
:10015000000000000000000000000000D1020008C4
:10016000D1020008D10200080000000000000000D9
:10017000000000000000000000000000000000007F
:1001800000000000D1020008000000000000000094
:04019000D102000890
:1001940010B5054C237833B9044B13B10448AFF3BD
:1001A40000800123237010BD000000200000000027
:1001B4001C03000808B5034B1BB103490348AFF304
:1001C400008008BD00000000040000201C0300089B
:1001D40080B487B000AF244B7B61244B3B613B6907
:1001E4001B6843F480323B691A6000BF3B691B689B
:1001F40003F40033002BF9D07B691B6843F0010240
:100204007B691A607B691B6843F480027B691A600E
:100214007B691B6843F000727B691A607B691B6809
:1002240043F080627B691A60114BFB60FB681B68BA
:1002340043F00102FB681A600E4BBB60BB681B688D
:1002440023F44032BB681A60BB681B6843F4003275
:10025400BB681A60084B7B607B681B6823F00F0245
:100264007B681A60FEE700BF08380240003802408D
:100274003038024000000240240002400D48854608
:10028400AFF300800C480D490D4A002302E0D45816
:10029400C4500433C4188C42F9D30A4A0A4C0023CC
:1002A40001E013600432A242FBD300F011F8FFF71F
:1002B4008FFFFEE7008001200000002000000020E6
:1002C4003C030008000000201C000020FEE70000A2
:1002D40070B50D4D0D4C641BA4100026A64209D127
:1002E4000B4D0C4C00F018F8641BA4100026A64219
:1002F40005D170BD55F8043B98470136EEE755F833
:10030400043B98470136F2E734030008340300083D
:100314003403000838030008F8B500BFF8BC08BC73
:100324009E467047F8B500BFF8BC08BC9E467047AF
:04033400B901000803
:040338009501000823
:04000005080002816C
:00000001FF
