:020000040800F2
:100000000080012051020008A1020008A10200089E
:10001000A1020008A1020008A102000800000000DF
:10002000000000000000000000000000A102000825
:10003000A102000800000000A1020008A1020008BF
:1000400000000000A1020008A1020008A1020008AF
:10005000A1020008A1020008A1020008A1020008F4
:10006000A1020008A1020008A1020008000000008F
:100070000000000000000000000000000000000080
:100080000000000000000000A102000800000000C5
:10009000000000000000000000000000A1020008B5
:1000A000A1020008A1020008A1020008A1020008A4
:1000B000A1020008A1020008A1020008A102000894
:1000C000A1020008A1020008A1020008A102000884
:1000D000A1020008A1020008A1020008000000001F
:1000E000A1020008A1020008A1020008000000000F
:1000F0000000000000000000000000000000000000
:1001000000000000A1020008A1020008A1020008EE
:1001100000000000000000000000000000000000DF
:1001200000000000000000000000000000000000CF
:1001300000000000000000000000000000000000BF
:10014000000000000000000000000000A102000804
:10015000000000000000000000000000A1020008F4
:10016000A1020008A1020008000000000000000039
:10017000000000000000000000000000000000007F
:1001800000000000A10200080000000000000000C4
:04019000A1020008C0
:1001940010B5054C237833B9044B13B10448AFF3BD
:1001A40000800123237010BD000000200000000027
:1001B400EC02000808B5034B1BB103490348AFF335
:1001C400008008BD0000000004000020EC020008CC
:1001D40080B485B000AF194BFB60FB681B6823F447
:1001E400C002FB681A60FB681B6843F00072FB687E
:1001F4001A60FB681B6843F08062FB681A60104B4E
:10020400BB60BB681B6843F00102BB681A600D4BFE
:100214007B607B681B6823F440327B681A607B68D0
:100224001B6843F400327B681A60074B3B603B68F1
:100234001B6823F00F023B681A60FEE7083802408F
:100244000B38024000000240240002400D4885465D
:10025400AFF300800C480D490D4A002302E0D45846
:10026400C4500433C4188C42F9D30A4A0A4C0023FC
:1002740001E013600432A242FBD300F011F8FFF74F
:10028400A7FFFEE7008001200000002000000020FE
:100294000C030008000000201C000020FEE7000002
:1002A40070B50D4D0D4C641BA4100026A64209D157
:1002B4000B4D0C4C00F018F8641BA4100026A64249
:1002C40005D170BD55F8043B98470136EEE755F863
:1002D400043B98470136F2E70403000804030008CE
:1002E4000403000808030008F8B500BFF8BC08BC04
:1002F4009E467047F8B500BFF8BC08BC9E467047E0
:04030400B901000833
:040308009501000853
:04000005080002519C
:00000001FF
